{
  "contractName": "TokenOwnership",
  "abi": [
    {
      "inputs": [],
      "stateMutability": "nonpayable",
      "type": "constructor"
    },
    {
      "anonymous": false,
      "inputs": [
        {
          "indexed": true,
          "internalType": "address",
          "name": "account",
          "type": "address"
        },
        {
          "indexed": true,
          "internalType": "address",
          "name": "operator",
          "type": "address"
        },
        {
          "indexed": false,
          "internalType": "bool",
          "name": "approved",
          "type": "bool"
        }
      ],
      "name": "ApprovalForAll",
      "type": "event"
    },
    {
      "anonymous": false,
      "inputs": [
        {
          "indexed": true,
          "internalType": "bytes32",
          "name": "role",
          "type": "bytes32"
        },
        {
          "indexed": true,
          "internalType": "bytes32",
          "name": "previousAdminRole",
          "type": "bytes32"
        },
        {
          "indexed": true,
          "internalType": "bytes32",
          "name": "newAdminRole",
          "type": "bytes32"
        }
      ],
      "name": "RoleAdminChanged",
      "type": "event"
    },
    {
      "anonymous": false,
      "inputs": [
        {
          "indexed": true,
          "internalType": "bytes32",
          "name": "role",
          "type": "bytes32"
        },
        {
          "indexed": true,
          "internalType": "address",
          "name": "account",
          "type": "address"
        },
        {
          "indexed": true,
          "internalType": "address",
          "name": "sender",
          "type": "address"
        }
      ],
      "name": "RoleGranted",
      "type": "event"
    },
    {
      "anonymous": false,
      "inputs": [
        {
          "indexed": true,
          "internalType": "bytes32",
          "name": "role",
          "type": "bytes32"
        },
        {
          "indexed": true,
          "internalType": "address",
          "name": "account",
          "type": "address"
        },
        {
          "indexed": true,
          "internalType": "address",
          "name": "sender",
          "type": "address"
        }
      ],
      "name": "RoleRevoked",
      "type": "event"
    },
    {
      "anonymous": false,
      "inputs": [
        {
          "indexed": true,
          "internalType": "address",
          "name": "operator",
          "type": "address"
        },
        {
          "indexed": true,
          "internalType": "address",
          "name": "from",
          "type": "address"
        },
        {
          "indexed": true,
          "internalType": "address",
          "name": "to",
          "type": "address"
        },
        {
          "indexed": false,
          "internalType": "uint256[]",
          "name": "ids",
          "type": "uint256[]"
        },
        {
          "indexed": false,
          "internalType": "uint256[]",
          "name": "values",
          "type": "uint256[]"
        }
      ],
      "name": "TransferBatch",
      "type": "event"
    },
    {
      "anonymous": false,
      "inputs": [
        {
          "indexed": true,
          "internalType": "address",
          "name": "operator",
          "type": "address"
        },
        {
          "indexed": true,
          "internalType": "address",
          "name": "from",
          "type": "address"
        },
        {
          "indexed": true,
          "internalType": "address",
          "name": "to",
          "type": "address"
        },
        {
          "indexed": false,
          "internalType": "uint256",
          "name": "id",
          "type": "uint256"
        },
        {
          "indexed": false,
          "internalType": "uint256",
          "name": "value",
          "type": "uint256"
        }
      ],
      "name": "TransferSingle",
      "type": "event"
    },
    {
      "anonymous": false,
      "inputs": [
        {
          "indexed": false,
          "internalType": "string",
          "name": "value",
          "type": "string"
        },
        {
          "indexed": true,
          "internalType": "uint256",
          "name": "id",
          "type": "uint256"
        }
      ],
      "name": "URI",
      "type": "event"
    },
    {
      "inputs": [],
      "name": "DEFAULT_ADMIN_ROLE",
      "outputs": [
        {
          "internalType": "bytes32",
          "name": "",
          "type": "bytes32"
        }
      ],
      "stateMutability": "view",
      "type": "function"
    },
    {
      "inputs": [],
      "name": "MINTERS",
      "outputs": [
        {
          "internalType": "bytes32",
          "name": "",
          "type": "bytes32"
        }
      ],
      "stateMutability": "view",
      "type": "function"
    },
    {
      "inputs": [
        {
          "internalType": "address",
          "name": "account",
          "type": "address"
        },
        {
          "internalType": "uint256",
          "name": "id",
          "type": "uint256"
        }
      ],
      "name": "balanceOf",
      "outputs": [
        {
          "internalType": "uint256",
          "name": "",
          "type": "uint256"
        }
      ],
      "stateMutability": "view",
      "type": "function"
    },
    {
      "inputs": [
        {
          "internalType": "address[]",
          "name": "accounts",
          "type": "address[]"
        },
        {
          "internalType": "uint256[]",
          "name": "ids",
          "type": "uint256[]"
        }
      ],
      "name": "balanceOfBatch",
      "outputs": [
        {
          "internalType": "uint256[]",
          "name": "",
          "type": "uint256[]"
        }
      ],
      "stateMutability": "view",
      "type": "function"
    },
    {
      "inputs": [
        {
          "internalType": "bytes32",
          "name": "role",
          "type": "bytes32"
        }
      ],
      "name": "getRoleAdmin",
      "outputs": [
        {
          "internalType": "bytes32",
          "name": "",
          "type": "bytes32"
        }
      ],
      "stateMutability": "view",
      "type": "function"
    },
    {
      "inputs": [
        {
          "internalType": "bytes32",
          "name": "role",
          "type": "bytes32"
        },
        {
          "internalType": "uint256",
          "name": "index",
          "type": "uint256"
        }
      ],
      "name": "getRoleMember",
      "outputs": [
        {
          "internalType": "address",
          "name": "",
          "type": "address"
        }
      ],
      "stateMutability": "view",
      "type": "function"
    },
    {
      "inputs": [
        {
          "internalType": "bytes32",
          "name": "role",
          "type": "bytes32"
        }
      ],
      "name": "getRoleMemberCount",
      "outputs": [
        {
          "internalType": "uint256",
          "name": "",
          "type": "uint256"
        }
      ],
      "stateMutability": "view",
      "type": "function"
    },
    {
      "inputs": [
        {
          "internalType": "bytes32",
          "name": "role",
          "type": "bytes32"
        },
        {
          "internalType": "address",
          "name": "account",
          "type": "address"
        }
      ],
      "name": "grantRole",
      "outputs": [],
      "stateMutability": "nonpayable",
      "type": "function"
    },
    {
      "inputs": [
        {
          "internalType": "bytes32",
          "name": "role",
          "type": "bytes32"
        },
        {
          "internalType": "address",
          "name": "account",
          "type": "address"
        }
      ],
      "name": "hasRole",
      "outputs": [
        {
          "internalType": "bool",
          "name": "",
          "type": "bool"
        }
      ],
      "stateMutability": "view",
      "type": "function"
    },
    {
      "inputs": [
        {
          "internalType": "address",
          "name": "account",
          "type": "address"
        },
        {
          "internalType": "address",
          "name": "operator",
          "type": "address"
        }
      ],
      "name": "isApprovedForAll",
      "outputs": [
        {
          "internalType": "bool",
          "name": "",
          "type": "bool"
        }
      ],
      "stateMutability": "view",
      "type": "function"
    },
    {
      "inputs": [
        {
          "internalType": "bytes32",
          "name": "role",
          "type": "bytes32"
        },
        {
          "internalType": "address",
          "name": "account",
          "type": "address"
        }
      ],
      "name": "renounceRole",
      "outputs": [],
      "stateMutability": "nonpayable",
      "type": "function"
    },
    {
      "inputs": [
        {
          "internalType": "bytes32",
          "name": "role",
          "type": "bytes32"
        },
        {
          "internalType": "address",
          "name": "account",
          "type": "address"
        }
      ],
      "name": "revokeRole",
      "outputs": [],
      "stateMutability": "nonpayable",
      "type": "function"
    },
    {
      "inputs": [
        {
          "internalType": "address",
          "name": "from",
          "type": "address"
        },
        {
          "internalType": "address",
          "name": "to",
          "type": "address"
        },
        {
          "internalType": "uint256[]",
          "name": "ids",
          "type": "uint256[]"
        },
        {
          "internalType": "uint256[]",
          "name": "amounts",
          "type": "uint256[]"
        },
        {
          "internalType": "bytes",
          "name": "data",
          "type": "bytes"
        }
      ],
      "name": "safeBatchTransferFrom",
      "outputs": [],
      "stateMutability": "nonpayable",
      "type": "function"
    },
    {
      "inputs": [
        {
          "internalType": "address",
          "name": "from",
          "type": "address"
        },
        {
          "internalType": "address",
          "name": "to",
          "type": "address"
        },
        {
          "internalType": "uint256",
          "name": "id",
          "type": "uint256"
        },
        {
          "internalType": "uint256",
          "name": "amount",
          "type": "uint256"
        },
        {
          "internalType": "bytes",
          "name": "data",
          "type": "bytes"
        }
      ],
      "name": "safeTransferFrom",
      "outputs": [],
      "stateMutability": "nonpayable",
      "type": "function"
    },
    {
      "inputs": [
        {
          "internalType": "address",
          "name": "operator",
          "type": "address"
        },
        {
          "internalType": "bool",
          "name": "approved",
          "type": "bool"
        }
      ],
      "name": "setApprovalForAll",
      "outputs": [],
      "stateMutability": "nonpayable",
      "type": "function"
    },
    {
      "inputs": [
        {
          "internalType": "bytes4",
          "name": "interfaceId",
          "type": "bytes4"
        }
      ],
      "name": "supportsInterface",
      "outputs": [
        {
          "internalType": "bool",
          "name": "",
          "type": "bool"
        }
      ],
      "stateMutability": "view",
      "type": "function"
    },
    {
      "inputs": [
        {
          "internalType": "uint256",
          "name": "",
          "type": "uint256"
        }
      ],
      "name": "uri",
      "outputs": [
        {
          "internalType": "string",
          "name": "",
          "type": "string"
        }
      ],
      "stateMutability": "view",
      "type": "function"
    },
    {
      "inputs": [
        {
          "internalType": "address",
          "name": "_minter",
          "type": "address"
        },
        {
          "internalType": "bool",
          "name": "status",
          "type": "bool"
        }
      ],
      "name": "setMinterAuthorization",
      "outputs": [],
      "stateMutability": "nonpayable",
      "type": "function"
    },
    {
      "inputs": [
        {
          "internalType": "address",
          "name": "_owner",
          "type": "address"
        }
      ],
      "name": "getTokenByOwner",
      "outputs": [
        {
          "internalType": "uint256[]",
          "name": "",
          "type": "uint256[]"
        }
      ],
      "stateMutability": "view",
      "type": "function"
    },
    {
      "inputs": [
        {
          "internalType": "uint256",
          "name": "number",
          "type": "uint256"
        }
      ],
      "name": "mint",
      "outputs": [],
      "stateMutability": "nonpayable",
      "type": "function"
    }
  ],
  "bytecode": "0x608060405260006005553480156200001657600080fd5b506040518060600160405280602681526020016200386060269139620000496301ffc9a760e01b620000a660201b60201c565b6200005a81620001af60201b60201c565b6200007263d9b67a2660e01b620000a660201b60201c565b6200008a630e89341c60e01b620000a660201b60201c565b50620000a06000801b33620001cb60201b60201c565b62000411565b63ffffffff60e01b817bffffffffffffffffffffffffffffffffffffffffffffffffffffffff1916141562000143576040517f08c379a000000000000000000000000000000000000000000000000000000000815260040180806020018281038252601c8152602001807f4552433136353a20696e76616c696420696e746572666163652069640000000081525060200191505060405180910390fd5b6001600080837bffffffffffffffffffffffffffffffffffffffffffffffffffffffff19167bffffffffffffffffffffffffffffffffffffffffffffffffffffffff1916815260200190815260200160002060006101000a81548160ff02191690831515021790555050565b8060039080519060200190620001c792919062000362565b5050565b620001dd8282620001e160201b60201c565b5050565b6200021081600460008581526020019081526020016000206000016200028560201b6200209e1790919060201c565b15620002815762000226620002bd60201b60201c565b73ffffffffffffffffffffffffffffffffffffffff168173ffffffffffffffffffffffffffffffffffffffff16837f2f8788117e7eff1d82e926ec794901d17c78024a50270940304540a733656f0d60405160405180910390a45b5050565b6000620002b5836000018373ffffffffffffffffffffffffffffffffffffffff1660001b620002c560201b60201c565b905092915050565b600033905090565b6000620002d983836200033f60201b60201c565b6200033457826000018290806001815401808255809150506001900390600052602060002001600090919091909150558260000180549050836001016000848152602001908152602001600020819055506001905062000339565b600090505b92915050565b600080836001016000848152602001908152602001600020541415905092915050565b828054600181600116156101000203166002900490600052602060002090601f016020900481019282601f10620003a557805160ff1916838001178555620003d6565b82800160010185558215620003d6579182015b82811115620003d5578251825591602001919060010190620003b8565b5b509050620003e59190620003e9565b5090565b6200040e91905b808211156200040a576000816000905550600101620003f0565b5090565b90565b61343f80620004216000396000f3fe608060405234801561001057600080fd5b506004361061012b5760003560e01c80635d1a42a1116100ad578063a22cb46511610071578063a22cb46514610971578063ca15c873146109c1578063d547741f14610a03578063e985e9c514610a51578063f242432a14610acd5761012b565b80635d1a42a1146108295780639010d07c1461084757806391d14854146108bf578063a0712d6814610925578063a217fddf146109535761012b565b80632eb2c2d6116100f45780632eb2c2d6146103795780632f2ff15d1461059c57806336568abe146105ea578063378c2b86146106385780634e1273f4146106885761012b565b8062fdd58e1461013057806301ffc9a7146101925780630e89341c146101f7578063248a9ca31461029e5780632bf79c94146102e0575b600080fd5b61017c6004803603604081101561014657600080fd5b81019080803573ffffffffffffffffffffffffffffffffffffffff16906020019092919080359060200190929190505050610bdc565b6040518082815260200191505060405180910390f35b6101dd600480360360208110156101a857600080fd5b8101908080357bffffffffffffffffffffffffffffffffffffffffffffffffffffffff19169060200190929190505050610cbc565b604051808215151515815260200191505060405180910390f35b6102236004803603602081101561020d57600080fd5b8101908080359060200190929190505050610d23565b6040518080602001828103825283818151815260200191508051906020019080838360005b83811015610263578082015181840152602081019050610248565b50505050905090810190601f1680156102905780820380516001836020036101000a031916815260200191505b509250505060405180910390f35b6102ca600480360360208110156102b457600080fd5b8101908080359060200190929190505050610dc7565b6040518082815260200191505060405180910390f35b610322600480360360208110156102f657600080fd5b81019080803573ffffffffffffffffffffffffffffffffffffffff169060200190929190505050610de7565b6040518080602001828103825283818151815260200191508051906020019060200280838360005b8381101561036557808201518184015260208101905061034a565b505050509050019250505060405180910390f35b61059a600480360360a081101561038f57600080fd5b81019080803573ffffffffffffffffffffffffffffffffffffffff169060200190929190803573ffffffffffffffffffffffffffffffffffffffff169060200190929190803590602001906401000000008111156103ec57600080fd5b8201836020820111156103fe57600080fd5b8035906020019184602083028401116401000000008311171561042057600080fd5b919080806020026020016040519081016040528093929190818152602001838360200280828437600081840152601f19601f8201169050808301925050505050505091929192908035906020019064010000000081111561048057600080fd5b82018360208201111561049257600080fd5b803590602001918460208302840111640100000000831117156104b457600080fd5b919080806020026020016040519081016040528093929190818152602001838360200280828437600081840152601f19601f8201169050808301925050505050505091929192908035906020019064010000000081111561051457600080fd5b82018360208201111561052657600080fd5b8035906020019184600183028401116401000000008311171561054857600080fd5b91908080601f016020809104026020016040519081016040528093929190818152602001838380828437600081840152601f19601f820116905080830192505050505050509192919290505050610f13565b005b6105e8600480360360408110156105b257600080fd5b8101908080359060200190929190803573ffffffffffffffffffffffffffffffffffffffff1690602001909291905050506113a1565b005b6106366004803603604081101561060057600080fd5b8101908080359060200190929190803573ffffffffffffffffffffffffffffffffffffffff16906020019092919050505061142b565b005b6106866004803603604081101561064e57600080fd5b81019080803573ffffffffffffffffffffffffffffffffffffffff1690602001909291908035151590602001909291905050506114c4565b005b6107d26004803603604081101561069e57600080fd5b81019080803590602001906401000000008111156106bb57600080fd5b8201836020820111156106cd57600080fd5b803590602001918460208302840111640100000000831117156106ef57600080fd5b919080806020026020016040519081016040528093929190818152602001838360200280828437600081840152601f19601f8201169050808301925050505050505091929192908035906020019064010000000081111561074f57600080fd5b82018360208201111561076157600080fd5b8035906020019184602083028401116401000000008311171561078357600080fd5b919080806020026020016040519081016040528093929190818152602001838360200280828437600081840152601f19601f8201169050808301925050505050505091929192905050506115d8565b6040518080602001828103825283818151815260200191508051906020019060200280838360005b838110156108155780820151818401526020810190506107fa565b505050509050019250505060405180910390f35b6108316117cd565b6040518082815260200191505060405180910390f35b61087d6004803603604081101561085d57600080fd5b810190808035906020019092919080359060200190929190505050611806565b604051808273ffffffffffffffffffffffffffffffffffffffff1673ffffffffffffffffffffffffffffffffffffffff16815260200191505060405180910390f35b61090b600480360360408110156108d557600080fd5b8101908080359060200190929190803573ffffffffffffffffffffffffffffffffffffffff169060200190929190505050611838565b604051808215151515815260200191505060405180910390f35b6109516004803603602081101561093b57600080fd5b810190808035906020019092919050505061186a565b005b61095b611a42565b6040518082815260200191505060405180910390f35b6109bf6004803603604081101561098757600080fd5b81019080803573ffffffffffffffffffffffffffffffffffffffff169060200190929190803515159060200190929190505050611a49565b005b6109ed600480360360208110156109d757600080fd5b8101908080359060200190929190505050611be4565b6040518082815260200191505060405180910390f35b610a4f60048036036040811015610a1957600080fd5b8101908080359060200190929190803573ffffffffffffffffffffffffffffffffffffffff169060200190929190505050611c0b565b005b610ab360048036036040811015610a6757600080fd5b81019080803573ffffffffffffffffffffffffffffffffffffffff169060200190929190803573ffffffffffffffffffffffffffffffffffffffff169060200190929190505050611c95565b604051808215151515815260200191505060405180910390f35b610bda600480360360a0811015610ae357600080fd5b81019080803573ffffffffffffffffffffffffffffffffffffffff169060200190929190803573ffffffffffffffffffffffffffffffffffffffff169060200190929190803590602001909291908035906020019092919080359060200190640100000000811115610b5457600080fd5b820183602082011115610b6657600080fd5b80359060200191846001830284011164010000000083111715610b8857600080fd5b91908080601f016020809104026020016040519081016040528093929190818152602001838380828437600081840152601f19601f820116905080830192505050505050509192919290505050611d29565b005b60008073ffffffffffffffffffffffffffffffffffffffff168373ffffffffffffffffffffffffffffffffffffffff161415610c63576040517f08c379a000000000000000000000000000000000000000000000000000000000815260040180806020018281038252602b81526020018061320a602b913960400191505060405180910390fd5b6001600083815260200190815260200160002060008473ffffffffffffffffffffffffffffffffffffffff1673ffffffffffffffffffffffffffffffffffffffff16815260200190815260200160002054905092915050565b6000806000837bffffffffffffffffffffffffffffffffffffffffffffffffffffffff19167bffffffffffffffffffffffffffffffffffffffffffffffffffffffff1916815260200190815260200160002060009054906101000a900460ff169050919050565b606060038054600181600116156101000203166002900480601f016020809104026020016040519081016040528092919081815260200182805460018160011615610100020316600290048015610dbb5780601f10610d9057610100808354040283529160200191610dbb565b820191906000526020600020905b815481529060010190602001808311610d9e57829003601f168201915b50505050509050919050565b600060046000838152602001908152602001600020600201549050919050565b60608060055467ffffffffffffffff81118015610e0357600080fd5b50604051908082528060200260200182016040528015610e325781602001602082028036833780820191505090505b509050606060055467ffffffffffffffff81118015610e5057600080fd5b50604051908082528060200260200182016040528015610e7f5781602001602082028036833780820191505090505b50905060008090505b600554811015610eff5784838281518110610e9f57fe5b602002602001019073ffffffffffffffffffffffffffffffffffffffff16908173ffffffffffffffffffffffffffffffffffffffff168152505080828281518110610ee657fe5b6020026020010181815250508080600101915050610e88565b50610f0a82826115d8565b92505050919050565b8151835114610f6d576040517f08c379a00000000000000000000000000000000000000000000000000000000081526004018080602001828103825260288152602001806133926028913960400191505060405180910390fd5b600073ffffffffffffffffffffffffffffffffffffffff168473ffffffffffffffffffffffffffffffffffffffff161415610ff3576040517f08c379a00000000000000000000000000000000000000000000000000000000081526004018080602001828103825260258152602001806132bf6025913960400191505060405180910390fd5b610ffb6120ce565b73ffffffffffffffffffffffffffffffffffffffff168573ffffffffffffffffffffffffffffffffffffffff16148061104157506110408561103b6120ce565b611c95565b5b611096576040517f08c379a00000000000000000000000000000000000000000000000000000000081526004018080602001828103825260328152602001806132e46032913960400191505060405180910390fd5b60006110a06120ce565b90506110b08187878787876120d6565b60008090505b84518110156112845760008582815181106110cd57fe5b6020026020010151905060008583815181106110e557fe5b6020026020010151905061116c816040518060600160405280602a8152602001613316602a91396001600086815260200190815260200160002060008d73ffffffffffffffffffffffffffffffffffffffff1673ffffffffffffffffffffffffffffffffffffffff168152602001908152602001600020546120de9092919063ffffffff16565b6001600084815260200190815260200160002060008b73ffffffffffffffffffffffffffffffffffffffff1673ffffffffffffffffffffffffffffffffffffffff16815260200190815260200160002081905550611223816001600085815260200190815260200160002060008b73ffffffffffffffffffffffffffffffffffffffff1673ffffffffffffffffffffffffffffffffffffffff1681526020019081526020016000205461219e90919063ffffffff16565b6001600084815260200190815260200160002060008a73ffffffffffffffffffffffffffffffffffffffff1673ffffffffffffffffffffffffffffffffffffffff1681526020019081526020016000208190555050508060010190506110b6565b508473ffffffffffffffffffffffffffffffffffffffff168673ffffffffffffffffffffffffffffffffffffffff168273ffffffffffffffffffffffffffffffffffffffff167f4a39dc06d4c0dbc64b70af90fd698a233a518aa5d07e595d983b8c0526c8f7fb8787604051808060200180602001838103835285818151815260200191508051906020019060200280838360005b83811015611334578082015181840152602081019050611319565b50505050905001838103825284818151815260200191508051906020019060200280838360005b8381101561137657808201518184015260208101905061135b565b5050505090500194505050505060405180910390a4611399818787878787612226565b505050505050565b6113c860046000848152602001908152602001600020600201546113c36120ce565b611838565b61141d576040517f08c379a000000000000000000000000000000000000000000000000000000000815260040180806020018281038252602f8152602001806131db602f913960400191505060405180910390fd5b61142782826125e1565b5050565b6114336120ce565b73ffffffffffffffffffffffffffffffffffffffff168173ffffffffffffffffffffffffffffffffffffffff16146114b6576040517f08c379a000000000000000000000000000000000000000000000000000000000815260040180806020018281038252602f8152602001806133db602f913960400191505060405180910390fd5b6114c08282612675565b5050565b6114d16000801b33611838565b611543576040517f08c379a000000000000000000000000000000000000000000000000000000000815260040180806020018281038252600d8152602001807f4e6f7420546865204f776e65720000000000000000000000000000000000000081525060200191505060405180910390fd5b6001151581151514156115945761158f60405180807f4d494e544552530000000000000000000000000000000000000000000000000081525060070190506040518091039020836113a1565b6115d4565b6115d360405180807f4d494e54455253000000000000000000000000000000000000000000000000008152506007019050604051809103902083611c0b565b5b5050565b60608151835114611634576040517f08c379a00000000000000000000000000000000000000000000000000000000081526004018080602001828103825260298152602001806133696029913960400191505060405180910390fd5b6060835167ffffffffffffffff8111801561164e57600080fd5b5060405190808252806020026020018201604052801561167d5781602001602082028036833780820191505090505b50905060008090505b84518110156117c257600073ffffffffffffffffffffffffffffffffffffffff168582815181106116b357fe5b602002602001015173ffffffffffffffffffffffffffffffffffffffff161415611728576040517f08c379a00000000000000000000000000000000000000000000000000000000081526004018080602001828103825260318152602001806132356031913960400191505060405180910390fd5b6001600085838151811061173857fe5b60200260200101518152602001908152602001600020600086838151811061175c57fe5b602002602001015173ffffffffffffffffffffffffffffffffffffffff1673ffffffffffffffffffffffffffffffffffffffff168152602001908152602001600020548282815181106117ab57fe5b602002602001018181525050806001019050611686565b508091505092915050565b60405180807f4d494e54455253000000000000000000000000000000000000000000000000008152506007019050604051809103902081565b6000611830826004600086815260200190815260200160002060000161270990919063ffffffff16565b905092915050565b6000611862826004600086815260200190815260200160002060000161272390919063ffffffff16565b905092915050565b6118a960405180807f4d494e54455253000000000000000000000000000000000000000000000000008152506007019050604051809103902033611838565b806118bd57506118bc6000801b33611838565b5b61192f576040517f08c379a000000000000000000000000000000000000000000000000000000000815260040180806020018281038252600e8152602001807f4e6f7420546865204d696e74657200000000000000000000000000000000000081525060200191505060405180910390fd5b60608167ffffffffffffffff8111801561194857600080fd5b506040519080825280602002602001820160405280156119775781602001602082028036833780820191505090505b50905060608267ffffffffffffffff8111801561199357600080fd5b506040519080825280602002602001820160405280156119c25781602001602082028036833780820191505090505b50905060008090505b83811015611a21576001600554016005819055506005548282815181106119ee57fe5b6020026020010181815250506001838281518110611a0857fe5b60200260200101818152505080806001019150506119cb565b50611a3d33828460405180602001604052806000815250612753565b505050565b6000801b81565b8173ffffffffffffffffffffffffffffffffffffffff16611a686120ce565b73ffffffffffffffffffffffffffffffffffffffff161415611ad5576040517f08c379a00000000000000000000000000000000000000000000000000000000081526004018080602001828103825260298152602001806133406029913960400191505060405180910390fd5b8060026000611ae26120ce565b73ffffffffffffffffffffffffffffffffffffffff1673ffffffffffffffffffffffffffffffffffffffff16815260200190815260200160002060008473ffffffffffffffffffffffffffffffffffffffff1673ffffffffffffffffffffffffffffffffffffffff16815260200190815260200160002060006101000a81548160ff0219169083151502179055508173ffffffffffffffffffffffffffffffffffffffff16611b8f6120ce565b73ffffffffffffffffffffffffffffffffffffffff167f17307eab39ab6107e8899845ad3d59bd9653f200f220920489ca2b5937696c3183604051808215151515815260200191505060405180910390a35050565b6000611c0460046000848152602001908152602001600020600001612a78565b9050919050565b611c326004600084815260200190815260200160002060020154611c2d6120ce565b611838565b611c87576040517f08c379a000000000000000000000000000000000000000000000000000000000815260040180806020018281038252603081526020018061328f6030913960400191505060405180910390fd5b611c918282612675565b5050565b6000600260008473ffffffffffffffffffffffffffffffffffffffff1673ffffffffffffffffffffffffffffffffffffffff16815260200190815260200160002060008373ffffffffffffffffffffffffffffffffffffffff1673ffffffffffffffffffffffffffffffffffffffff16815260200190815260200160002060009054906101000a900460ff16905092915050565b600073ffffffffffffffffffffffffffffffffffffffff168473ffffffffffffffffffffffffffffffffffffffff161415611daf576040517f08c379a00000000000000000000000000000000000000000000000000000000081526004018080602001828103825260258152602001806132bf6025913960400191505060405180910390fd5b611db76120ce565b73ffffffffffffffffffffffffffffffffffffffff168573ffffffffffffffffffffffffffffffffffffffff161480611dfd5750611dfc85611df76120ce565b611c95565b5b611e52576040517f08c379a00000000000000000000000000000000000000000000000000000000081526004018080602001828103825260298152602001806132666029913960400191505060405180910390fd5b6000611e5c6120ce565b9050611e7c818787611e6d88612a8d565b611e7688612a8d565b876120d6565b611ef9836040518060600160405280602a8152602001613316602a91396001600088815260200190815260200160002060008a73ffffffffffffffffffffffffffffffffffffffff1673ffffffffffffffffffffffffffffffffffffffff168152602001908152602001600020546120de9092919063ffffffff16565b6001600086815260200190815260200160002060008873ffffffffffffffffffffffffffffffffffffffff1673ffffffffffffffffffffffffffffffffffffffff16815260200190815260200160002081905550611fb0836001600087815260200190815260200160002060008873ffffffffffffffffffffffffffffffffffffffff1673ffffffffffffffffffffffffffffffffffffffff1681526020019081526020016000205461219e90919063ffffffff16565b6001600086815260200190815260200160002060008773ffffffffffffffffffffffffffffffffffffffff1673ffffffffffffffffffffffffffffffffffffffff168152602001908152602001600020819055508473ffffffffffffffffffffffffffffffffffffffff168673ffffffffffffffffffffffffffffffffffffffff168273ffffffffffffffffffffffffffffffffffffffff167fc3d58168c5ae7397731d063d5bbf3d657854427343f4c083240f7aacaa2d0f628787604051808381526020018281526020019250505060405180910390a4612096818787878787612afd565b505050505050565b60006120c6836000018373ffffffffffffffffffffffffffffffffffffffff1660001b612e36565b905092915050565b600033905090565b505050505050565b600083831115829061218b576040517f08c379a00000000000000000000000000000000000000000000000000000000081526004018080602001828103825283818151815260200191508051906020019080838360005b83811015612150578082015181840152602081019050612135565b50505050905090810190601f16801561217d5780820380516001836020036101000a031916815260200191505b509250505060405180910390fd5b5060008385039050809150509392505050565b60008082840190508381101561221c576040517f08c379a000000000000000000000000000000000000000000000000000000000815260040180806020018281038252601b8152602001807f536166654d6174683a206164646974696f6e206f766572666c6f77000000000081525060200191505060405180910390fd5b8091505092915050565b6122458473ffffffffffffffffffffffffffffffffffffffff16612ea6565b156125d9578373ffffffffffffffffffffffffffffffffffffffff1663bc197c8187878686866040518663ffffffff1660e01b8152600401808673ffffffffffffffffffffffffffffffffffffffff1673ffffffffffffffffffffffffffffffffffffffff1681526020018573ffffffffffffffffffffffffffffffffffffffff1673ffffffffffffffffffffffffffffffffffffffff168152602001806020018060200180602001848103845287818151815260200191508051906020019060200280838360005b8381101561232957808201518184015260208101905061230e565b50505050905001848103835286818151815260200191508051906020019060200280838360005b8381101561236b578082015181840152602081019050612350565b50505050905001848103825285818151815260200191508051906020019080838360005b838110156123aa57808201518184015260208101905061238f565b50505050905090810190601f1680156123d75780820380516001836020036101000a031916815260200191505b5098505050505050505050602060405180830381600087803b1580156123fc57600080fd5b505af192505050801561243057506040513d602081101561241c57600080fd5b810190808051906020019092919050505060015b61253a5761243c6130a6565b8061244757506124e9565b806040517f08c379a00000000000000000000000000000000000000000000000000000000081526004018080602001828103825283818151815260200191508051906020019080838360005b838110156124ae578082015181840152602081019050612493565b50505050905090810190601f1680156124db5780820380516001836020036101000a031916815260200191505b509250505060405180910390fd5b6040517f08c379a000000000000000000000000000000000000000000000000000000000815260040180806020018281038252603481526020018061315d6034913960400191505060405180910390fd5b63bc197c8160e01b7bffffffffffffffffffffffffffffffffffffffffffffffffffffffff1916817bffffffffffffffffffffffffffffffffffffffffffffffffffffffff1916146125d7576040517f08c379a00000000000000000000000000000000000000000000000000000000081526004018080602001828103825260288152602001806131b36028913960400191505060405180910390fd5b505b505050505050565b612609816004600085815260200190815260200160002060000161209e90919063ffffffff16565b15612671576126166120ce565b73ffffffffffffffffffffffffffffffffffffffff168173ffffffffffffffffffffffffffffffffffffffff16837f2f8788117e7eff1d82e926ec794901d17c78024a50270940304540a733656f0d60405160405180910390a45b5050565b61269d8160046000858152602001908152602001600020600001612eb990919063ffffffff16565b15612705576126aa6120ce565b73ffffffffffffffffffffffffffffffffffffffff168173ffffffffffffffffffffffffffffffffffffffff16837ff6391f5c32d9c69d2a47ea670b442974b53935d1edc7fd64eb21e047a839171b60405160405180910390a45b5050565b60006127188360000183612ee9565b60001c905092915050565b600061274b836000018373ffffffffffffffffffffffffffffffffffffffff1660001b612f6c565b905092915050565b600073ffffffffffffffffffffffffffffffffffffffff168473ffffffffffffffffffffffffffffffffffffffff1614156127d9576040517f08c379a00000000000000000000000000000000000000000000000000000000081526004018080602001828103825260218152602001806133ba6021913960400191505060405180910390fd5b8151835114612833576040517f08c379a00000000000000000000000000000000000000000000000000000000081526004018080602001828103825260288152602001806133926028913960400191505060405180910390fd5b600061283d6120ce565b905061284e816000878787876120d6565b60008090505b845181101561295a576128e66001600087848151811061287057fe5b6020026020010151815260200190815260200160002060008873ffffffffffffffffffffffffffffffffffffffff1673ffffffffffffffffffffffffffffffffffffffff168152602001908152602001600020548583815181106128d057fe5b602002602001015161219e90919063ffffffff16565b600160008784815181106128f657fe5b6020026020010151815260200190815260200160002060008873ffffffffffffffffffffffffffffffffffffffff1673ffffffffffffffffffffffffffffffffffffffff168152602001908152602001600020819055508080600101915050612854565b508473ffffffffffffffffffffffffffffffffffffffff16600073ffffffffffffffffffffffffffffffffffffffff168273ffffffffffffffffffffffffffffffffffffffff167f4a39dc06d4c0dbc64b70af90fd698a233a518aa5d07e595d983b8c0526c8f7fb8787604051808060200180602001838103835285818151815260200191508051906020019060200280838360005b83811015612a0b5780820151818401526020810190506129f0565b50505050905001838103825284818151815260200191508051906020019060200280838360005b83811015612a4d578082015181840152602081019050612a32565b5050505090500194505050505060405180910390a4612a7181600087878787612226565b5050505050565b6000612a8682600001612f8f565b9050919050565b606080600167ffffffffffffffff81118015612aa857600080fd5b50604051908082528060200260200182016040528015612ad75781602001602082028036833780820191505090505b5090508281600081518110612ae857fe5b60200260200101818152505080915050919050565b612b1c8473ffffffffffffffffffffffffffffffffffffffff16612ea6565b15612e2e578373ffffffffffffffffffffffffffffffffffffffff1663f23a6e6187878686866040518663ffffffff1660e01b8152600401808673ffffffffffffffffffffffffffffffffffffffff1673ffffffffffffffffffffffffffffffffffffffff1681526020018573ffffffffffffffffffffffffffffffffffffffff1673ffffffffffffffffffffffffffffffffffffffff16815260200184815260200183815260200180602001828103825283818151815260200191508051906020019080838360005b83811015612c01578082015181840152602081019050612be6565b50505050905090810190601f168015612c2e5780820380516001836020036101000a031916815260200191505b509650505050505050602060405180830381600087803b158015612c5157600080fd5b505af1925050508015612c8557506040513d6020811015612c7157600080fd5b810190808051906020019092919050505060015b612d8f57612c916130a6565b80612c9c5750612d3e565b806040517f08c379a00000000000000000000000000000000000000000000000000000000081526004018080602001828103825283818151815260200191508051906020019080838360005b83811015612d03578082015181840152602081019050612ce8565b50505050905090810190601f168015612d305780820380516001836020036101000a031916815260200191505b509250505060405180910390fd5b6040517f08c379a000000000000000000000000000000000000000000000000000000000815260040180806020018281038252603481526020018061315d6034913960400191505060405180910390fd5b63f23a6e6160e01b7bffffffffffffffffffffffffffffffffffffffffffffffffffffffff1916817bffffffffffffffffffffffffffffffffffffffffffffffffffffffff191614612e2c576040517f08c379a00000000000000000000000000000000000000000000000000000000081526004018080602001828103825260288152602001806131b36028913960400191505060405180910390fd5b505b505050505050565b6000612e428383612f6c565b612e9b578260000182908060018154018082558091505060019003906000526020600020016000909190919091505582600001805490508360010160008481526020019081526020016000208190555060019050612ea0565b600090505b92915050565b600080823b905060008111915050919050565b6000612ee1836000018373ffffffffffffffffffffffffffffffffffffffff1660001b612fa0565b905092915050565b600081836000018054905011612f4a576040517f08c379a00000000000000000000000000000000000000000000000000000000081526004018080602001828103825260228152602001806131916022913960400191505060405180910390fd5b826000018281548110612f5957fe5b9060005260206000200154905092915050565b600080836001016000848152602001908152602001600020541415905092915050565b600081600001805490509050919050565b6000808360010160008481526020019081526020016000205490506000811461307c5760006001820390506000600186600001805490500390506000866000018281548110612feb57fe5b906000526020600020015490508087600001848154811061300857fe5b906000526020600020018190555060018301876001016000838152602001908152602001600020819055508660000180548061304057fe5b60019003818190600052602060002001600090559055866001016000878152602001908152602001600020600090556001945050505050613082565b60009150505b92915050565b6000601f19601f8301169050919050565b60008160e01c9050919050565b600060443d10156130b657613159565b60046000803e6130c7600051613099565b6308c379a081146130d85750613159565b60405160043d036004823e80513d602482011167ffffffffffffffff8211171561310457505050613159565b808201805167ffffffffffffffff811115613123575050505050613159565b8060208301013d850181111561313e57505050505050613159565b61314782613088565b60208401016040528296505050505050505b9056fe455243313135353a207472616e7366657220746f206e6f6e2045524331313535526563656976657220696d706c656d656e746572456e756d657261626c655365743a20696e646578206f7574206f6620626f756e6473455243313135353a204552433131353552656365697665722072656a656374656420746f6b656e73416363657373436f6e74726f6c3a2073656e646572206d75737420626520616e2061646d696e20746f206772616e74455243313135353a2062616c616e636520717565727920666f7220746865207a65726f2061646472657373455243313135353a2062617463682062616c616e636520717565727920666f7220746865207a65726f2061646472657373455243313135353a2063616c6c6572206973206e6f74206f776e6572206e6f7220617070726f766564416363657373436f6e74726f6c3a2073656e646572206d75737420626520616e2061646d696e20746f207265766f6b65455243313135353a207472616e7366657220746f20746865207a65726f2061646472657373455243313135353a207472616e736665722063616c6c6572206973206e6f74206f776e6572206e6f7220617070726f766564455243313135353a20696e73756666696369656e742062616c616e636520666f72207472616e73666572455243313135353a2073657474696e6720617070726f76616c2073746174757320666f722073656c66455243313135353a206163636f756e747320616e6420696473206c656e677468206d69736d61746368455243313135353a2069647320616e6420616d6f756e7473206c656e677468206d69736d61746368455243313135353a206d696e7420746f20746865207a65726f2061646472657373416363657373436f6e74726f6c3a2063616e206f6e6c792072656e6f756e636520726f6c657320666f722073656c66a26469706673582212200ac56242366bced0e47e88f30d4890eb76cfda100e632bdcd12ba8781ba8cdc864736f6c6343000608003368747470733a2f2f67616d652e6578616d706c652f6170692f6974656d2f7b317d2e6a736f6e",
  "immutableReferences": {},
  "source": "pragma solidity ^0.6.0;\n\n\nimport \"@openzeppelin/contracts/token/ERC1155/ERC1155.sol\";\nimport '@openzeppelin/contracts/access/AccessControl.sol';\n\ncontract TokenOwnership is ERC1155, AccessControl {\n\n    uint256 currentId = 0;\n    bytes32 public constant MINTERS = keccak256('MINTERS');\n\n    constructor() public ERC1155(\"https://game.example/api/item/{1}.json\") {\n        _setupRole(DEFAULT_ADMIN_ROLE, msg.sender);\n    }\n\n    modifier onlyMinters() {\n        require(\n            hasRole(MINTERS, msg.sender) ||\n                hasRole(DEFAULT_ADMIN_ROLE, msg.sender),\n            \"Not The Minter\"\n        );\n        _;\n    }\n\n    modifier onlyOwners() {\n        require(hasRole(DEFAULT_ADMIN_ROLE, msg.sender), \"Not The Owner\");\n        _;\n    }\n\n    function setMinterAuthorization(address _minter, bool status) external onlyOwners {\n        if (status == true) {\n            grantRole(MINTERS, _minter);\n        } else {\n            revokeRole(MINTERS, _minter);\n        }\n    }\n\n    function getTokenByOwner(address _owner) external view returns (uint[] memory){\n        address[] memory accounts = new address[](currentId);\n        uint256[] memory ids = new uint256[](currentId);\n        for (uint i = 0; i < currentId; i++) {\n            accounts[i] = _owner;\n            ids[i] = i;\n        }\n        return balanceOfBatch(accounts, ids);\n    }\n\n\n    function mint(uint number) external onlyMinters {\n        // _mint(msg.sender, VACCINE_TOKEN, number, \"\");\n        uint256[] memory amounts = new uint256[](number);\n        uint256[] memory ids = new uint256[](number);\n        for (uint i = 0; i < number; i++) {\n            currentId = currentId + 1;\n            ids[i] = currentId;\n            amounts[i] = 1;\n        }\n        _mintBatch(msg.sender, ids, amounts, \"\");\n    }\n    \n}",
  "sourcePath": "/Users/timg/Documents/GitHub/cons-internal-covid19/covid19-server/contracts/TokenOwnership.sol",
  "compiler": {
    "name": "solc",
    "version": "0.6.8+commit.0bbfe453.Emscripten.clang"
  },
  "schemaVersion": "3.2.3",
  "updatedAt": "2020-11-10T21:42:32.613Z",
  "devdoc": {
    "methods": {
      "balanceOf(address,uint256)": {
        "details": "See {IERC1155-balanceOf}.     * Requirements:     * - `account` cannot be the zero address."
      },
      "balanceOfBatch(address[],uint256[])": {
        "details": "See {IERC1155-balanceOfBatch}.     * Requirements:     * - `accounts` and `ids` must have the same length."
      },
      "getRoleAdmin(bytes32)": {
        "details": "Returns the admin role that controls `role`. See {grantRole} and {revokeRole}.     * To change a role's admin, use {_setRoleAdmin}."
      },
      "getRoleMember(bytes32,uint256)": {
        "details": "Returns one of the accounts that have `role`. `index` must be a value between 0 and {getRoleMemberCount}, non-inclusive.     * Role bearers are not sorted in any particular way, and their ordering may change at any point.     * WARNING: When using {getRoleMember} and {getRoleMemberCount}, make sure you perform all queries on the same block. See the following https://forum.openzeppelin.com/t/iterating-over-elements-on-enumerableset-in-openzeppelin-contracts/2296[forum post] for more information."
      },
      "getRoleMemberCount(bytes32)": {
        "details": "Returns the number of accounts that have `role`. Can be used together with {getRoleMember} to enumerate all bearers of a role."
      },
      "grantRole(bytes32,address)": {
        "details": "Grants `role` to `account`.     * If `account` had not been already granted `role`, emits a {RoleGranted} event.     * Requirements:     * - the caller must have ``role``'s admin role."
      },
      "hasRole(bytes32,address)": {
        "details": "Returns `true` if `account` has been granted `role`."
      },
      "isApprovedForAll(address,address)": {
        "details": "See {IERC1155-isApprovedForAll}."
      },
      "renounceRole(bytes32,address)": {
        "details": "Revokes `role` from the calling account.     * Roles are often managed via {grantRole} and {revokeRole}: this function's purpose is to provide a mechanism for accounts to lose their privileges if they are compromised (such as when a trusted device is misplaced).     * If the calling account had been granted `role`, emits a {RoleRevoked} event.     * Requirements:     * - the caller must be `account`."
      },
      "revokeRole(bytes32,address)": {
        "details": "Revokes `role` from `account`.     * If `account` had been granted `role`, emits a {RoleRevoked} event.     * Requirements:     * - the caller must have ``role``'s admin role."
      },
      "safeBatchTransferFrom(address,address,uint256[],uint256[],bytes)": {
        "details": "See {IERC1155-safeBatchTransferFrom}."
      },
      "safeTransferFrom(address,address,uint256,uint256,bytes)": {
        "details": "See {IERC1155-safeTransferFrom}."
      },
      "setApprovalForAll(address,bool)": {
        "details": "See {IERC1155-setApprovalForAll}."
      },
      "supportsInterface(bytes4)": {
        "details": "See {IERC165-supportsInterface}.     * Time complexity O(1), guaranteed to always use less than 30 000 gas."
      },
      "uri(uint256)": {
        "details": "See {IERC1155MetadataURI-uri}.     * This implementation returns the same URI for *all* token types. It relies on the token type ID substitution mechanism https://eips.ethereum.org/EIPS/eip-1155#metadata[defined in the EIP].     * Clients calling this function must replace the `\\{id\\}` substring with the actual token type ID."
      }
    }
  },
  "userdoc": {
    "methods": {}
  }
}